:020000040001F9
:10F00000804D002015F201001DF201001FF20100E9
:10F0100021F2010023F2010025F2010000000000AE
:10F0200000000000000000000000000027F20100C6
:10F0300029F20100000000002BF201002DF2010076
:10F0400079FA01002FF20100C1FF01003DFC01002F
:10F050002FF201002FF201004DF80100F5FA010036
:10F0600071FF010085FF010099FF01002FF20100EF
:10F070002FF201002FF201002FF201002FF2010008
:10F080002FF20100D1FA01002FF201002FF201004E
:10F090004DFC01002FF2010051FC01002FF2010094
:10F0A0002FF201002FF20100ADFF01002FF201004D
:10F0B0002FF201002FF2010000000000000000000C
:10F0C0002FF201002FF201002FF201002FF20100B8
:10F0D0002FF201002FF201002FF2010000000000CA
:10F0E0000000000000000000000000000000000020
:10F0F0000000000000000000000000000000000010
:10F1000000000000000000000000000000000000FF
:10F1100000000000000000000000000000000000EF
:10F1200000000000000000000000000000000000DF
:10F1300000000000000000000000000000000000CF
:10F1400000000000000000000000000000000000BF
:10F1500000000000000000000000000000000000AF
:10F16000000000000000000000000000000000009F
:10F17000000000000000000000000000000000008F
:10F18000000000000000000000000000000000007F
:10F19000000000000000000000000000000000006F
:10F1A000000000000000000000000000000000005F
:10F1B000000000000000000000000000000000004F
:10F1C000000000000000000000000000000000003F
:10F1D000000000000000000000000000000000002F
:10F1E000000000000000000000000000000000001F
:10F1F000000000000000000000000000000000000F
:10F20000DFF80CD000F098FA00480047F127020020
:10F21000804D00200648804706480047FEE7FEE78D
:10F22000FEE7FEE7FEE7FEE7FEE7FEE7FEE7FEE7B6
:10F2300075FC010001F2010040EA01039B0703D0C5
:10F2400009E008C9121F08C0042AFAD203E011F825
:10F25000013B00F8013B521EF9D27047D2B201E0E7
:10F2600000F8012B491EFBD270470022F6E710B5CB
:10F2700013460A4604461946FFF7F0FF204610BD24
:10F280002DE9FE4F81EA030404F0004421F000411F
:10F2900000944FF0000B23F0004350EA01045ED0CD
:10F2A00052EA03045BD0C3F30A54C1F30A552C4459
:10F2B000A4F2F3340194A0FB0254C1F3130141F40E
:10F2C0008011C3F3130343F4801301FB024400FBDA
:10F2D000034E840A970A44EA815447EA8357A4FB01
:10F2E000076802958D0A05FB07854FEA932C04FBFE
:10F2F0000C542705029D4FEA065847EA1637B5EB2E
:10F3000008056EEB070C870E920E47EA811742EA5A
:10F310008312A7FB0201B6EB0B0164EB00042B0D7B
:10F3200043EA0C335E1844EB1C50DA465146E7FBC7
:10F330000201C5F313044FEA0B3343EA14534FEAB7
:10F340000432019C43EA0603A4F10C040294009CDD
:10F35000CDE900B400F0CBF803B0BDE8F08F002099
:10F360000146F9E72DE9F04D81EA030404F0004B72
:10F3700021F0004514464FF0000A23F0004150EA06
:10F38000050220D054EA01021DD0C5F30A570246F7
:10F39000C5F31303C1F31300C1F30A5640F48015FB
:10F3A00043F48013A7EB0608101BD64608F2FD387D
:10F3B00073EB050002D308F1010801E092185B41EC
:10F3C000B8F1000F03DA00200146BDE8F08D0020FF
:10F3D0004FF48011064684460EE0171B73EB0507B9
:10F3E00005D3121B63EB050306434CEA010C4908E5
:10F3F0004FEA300092185B4150EA0107EDD152EA22
:10F40000030012D082EA040083EA0501084305D014
:10F41000101BAB4106D20122002306E000224FF070
:10F42000004302E06FF0010253101AEB06004CEBB0
:10F43000085110EB0A0041EB0B01BDE8F04D00F064
:10F4400047B830B50B46014600202022012409E0D0
:10F4500021FA02F59D4205D303FA02F5491B04FA8D
:10F4600002F52844151EA2F10102F1DC30BD2DE9A0
:10F47000F05F0546002092469B4688460646814638
:10F4800040241BE0284641464746224600F075F9D5
:10F4900053465A46C01A914110D311461846224687
:10F4A00000F05CF92D1A67EB01084F462246012057
:10F4B000002100F053F917EB00094E41201EA4F182
:10F4C0000104DFDC484631462A464346BDE8F09F4A
:10F4D00010B5141E73F1000408DA401C41F100015C
:10F4E00092185B411A4301D120F0010010BD2DE9B3
:10F4F000F04D92469B4611B1B1FA81F202E0B0FAAA
:10F5000080F22032904600F029F904460F4640EA86
:10F510000A0041EA0B0153465A46084313D01146EC
:10F5200053EA010019D0C8F14002504600F025F915
:10F5300005460E4650465946424600F00FF908432C
:10F5400005D0012004E020463946BDE8F08D0020BA
:10F55000054346EAE0762C4337430A986305E40AFC
:10F56000A0EB08000022FD0A44EA47540A3002D505
:10F5700000200146E9E7010510196941DDE9084568
:10F5800000196941BDE8F04DA2E72DE9FE4F804624
:10F5900081EA0300C00F0C46009021F0004123F0E7
:10F5A0000045B8EB0200A94105D2404621469046ED
:10F5B0001C460B46024623F00040104347D0270D5F
:10F5C000C7F30A00C3F30A510290401A0190402881
:10F5D0006BDAC3F3130040F4801B0098924620B10D
:10F5E0000023D2EB030A63EB0B0B01985946C0F1E1
:10F5F0004002504600F0B2F806460D4650465946C5
:10F60000019A00F0CAF810EB08006141002487EA73
:10F61000115284EAE7731A4340D0009A62B3019A08
:10F62000012A4FEA075215DC001B61EB02014FF083
:10F63000004202EA0752CDE90042001C41F5801168
:10F6400032462B46FFF753FF03B0BDE8F08F40462C
:10F650002146F9E7001B61EB0201001C41F5801314
:10F6600000185B412018A2F5001747EB030140EAA0
:10F67000D570B6196D4111E06D084FEA360645EABE
:10F68000C0754FEA0752001B61EB0201001C41F5F7
:10F69000801149084FEA30000019514132462B468B
:10F6A00003B0BDE8F04FFFF713BF00980122400000
:10F6B0000023D0EB020263EBE073009821464FEA8F
:10F6C000E074B8EB000061EB0401E9E783F000436C
:10F6D0005BE781F0004158E7C1F30A52C1F313011F
:10F6E00040F2FF3341F480119A4202DA00200146D1
:10F6F000704740F233439A42A2F2334202DC524254
:10F7000000F03BB800F02AB830B5041E71F10004D7
:10F7100004DB4FF00044404264EB0101141E73F11E
:10F72000000405DB1C464FF00043524263EB040328
:10F73000994208BF904230BD064C074D06E0E06894
:10F7400040F0010394E8070098471034AC42F6D328
:10F75000FFF75AFDBC500200DC500200202A04DBF7
:10F76000203A00FA02F1002070479140C2F12003D4
:10F7700020FA03F3194390407047202A04DB203A13
:10F7800021FA02F00021704721FA02F3D040C2F1C1
:10F7900020029140084319467047202A06DBCB1708
:10F7A000203A41FA02F043EAE07306E041FA02F33C
:10F7B000D040C2F120029140084319467047000032
:10F7C000FFB583B00746002001909DF81010164643
:10F7D000044602908DF8041000901D4604AA394694
:10F7E000094803F0B7FD2B4601AA3946064803F045
:10F7F0009FFD01A903E00A5D3255641CE4B2AC42EE
:10F80000F9D307B040B2F0BD784F0200FEB5002436
:10F810008DF8041001A904E0155D0E19641C7570C3
:10F82000E4B29C42F8D3002100915B1C0146DBB29C
:10F8300001AA024803F08EFD40B2FEBD784F0200DF
:10F840004FF47A71484303F0D5B800002DE9F04732
:10F8500000268CB0DFF86091B0464FF4807501242B
:10F8600037460696284604F04BF838B1D9F8040319
:10F87000204203D0284604F039F826432D1D6400A9
:10F880007F1CADB2082FEDD34FF4BE74204604F0B8
:10F8900037F848B1204604F029F846F0004606AA99
:10F8A0000121002004F00EF8444D16F0FF0F15D092
:10F8B0000127002437420DD009EB8401D1F810054F
:10F8C000D1F81015C0F3042055F82420C1F30141EC
:10F8D00002B190477F00641C082CEBD3002E67DA3E
:10F8E0004FF0FF30CDE9088000263446281910F883
:10F8F000507F90F9000027F0C008401C44D009A9AF
:10F90000404603F04BF858B34FEA9719404602F0CF
:10F910004FFA55F820701FB1B9F1030F03D00FE073
:10F92000B9F1030F30D108A84FEAD80208F0070355
:10F93000815C4FF0010C0CFA03FC41EA0C0181548C
:10F940004FF0A04101EB8800D0F8000706A9C0F3F2
:10F95000014A404603F022F818B1BAF1020F03D071
:10F9600012E0BAF1030F0FD1B9F1030F08D1BAF1C8
:10F97000020F1BD00221404603F081FF761CF6B235
:10F9800017B149464046B847641C042CAED3002E3C
:10F990000ED06A460121002003F094FF06990098DA
:10F9A000884205D00690089809909DE70321E2E778
:10F9B0000CB0BDE8F087000000600040B0270020D8
:10F9C00006480549C160064901610649416128218F
:10F9D00041720020704700000DF80100442500200E
:10F9E000C1F7010041F8010000F01F020121914020
:10F9F0004009800000F1E020C0F88012704700F05C
:10FA00001F02012191404009800000F1E020C0F870
:10FA10008011704700F01F020121914040098000D1
:10FA200000F1E020C0F80011704700F01F02012132
:10FA300091404009800000F1E020C0F800117047BB
:10FA400000F01F02012191404009800000F1E020F8
:10FA5000C0F8001270474907090E002806DA00F0C6
:10FA60000F0000F1E02080F8141D704700F1E02045
:10FA700080F80014704700002DE9F0414FF48077C2
:10FA8000384602F0A7FF0124104EA50748B13846BA
:10FA900002F0A7FF0120C5F808037470002002F0EF
:10FAA0008FF94FF48277384602F094FF00280BD08C
:10FAB000384602F096FF0220C5F80803B470BDE88E
:10FAC000F041012002F07CB9BDE8F0819C270020C4
:10FAD00007480021C0F84011C0F84411C0F848118F
:10FAE000C0F84C11C0F80011C0F8041104F088BD32
:10FAF000001001402DE9FE434FF48278404604F0A7
:10FB000073F84C4F00254C4C012600B3404604F0DE
:10FB100073F894F82E0010B194F82F10D1B18DF82D
:10FB20000050616801912189ADF80810E26832B196
:10FB3000218B618362602181E56010B102E0257450
:10FB400000E03E6021686846884784F82F5094F8AA
:10FB50002E0060B34FF48077384604F045F830B398
:10FB6000384604F049F8628B94F82D108A420AD97D
:10FB7000A2EB010080B260832289A2EB00006268E0
:10FB800002EB400005E007D1E06828B184F82F605F
:10FB9000658303F0E3FF04E08A4202D184F82F601A
:10FBA0006583404604F028F82248001D06604FF4A3
:10FBB0008877384604F018F848B1384604F01CF845
:10FBC000257402208DF800002168684688474FF4AC
:10FBD0008A77384604F008F828B1384604F00CF863
:10FBE0002574BDE8FE834FF000484FF48C796769B7
:10FBF0001DE000BFB7FA87F028FA00F109EB800595
:10FC00008F43284603F0F0FF88B1284603F0F4FF45
:10FC1000A5F58C75E8088DF8040045F38000401CBC
:10FC20008DF800608DF80500216868468847002F30
:10FC3000E0D1D6E70070004050280020014902487A
:10FC400002F0D7BB282800200030004004F030BC70
:10FC5000074810B5406830B18047002807D0BDE89C
:10FC6000104000F0F5BFBDE8104002F029BB10BD08
:10FC700014220020F0B5AE480023021D01780125B2
:10FC8000101D4FF0805406290BD11678360708D185
:10FC90000678C6F30316032E06D0042E04D0052ED4
:10FCA00002D0062907D00EE0B4F82463A14FC6F3B2
:10FCB00004263E6002E01678360704D10678C6F3C3
:10FCC0000316032E02D0062904D00FE09B4F9A4E54
:10FCD0007E670EE01678360708D10678C6F303165D
:10FCE000032E06D0042E04D0052E02D0062907D0FC
:10FCF0000EE0D4F84462924FC6F342363E6002E012
:10FD00001678360704D10678C6F30316032E02D000
:10FD1000062906D011E08B4E376827F080773760D0
:10FD20000EE01678360708D10678C6F30316032EC0
:10FD300006D0042E04D0052E02D006290AD011E0E8
:10FD40004FF08046C6F80C31C6F810317C4E361F95
:10FD5000336002E01678360704D10678C6F303163E
:10FD6000032E02D0062905D00CE0754F0326643718
:10FD70003E600AE01678360704D10678C6F303160B
:10FD8000032E02D006290DD014E06F4F05263E60E9
:10FD90006D4E783635606C4E083633603F263F1D19
:10FDA0003E6002E01678360704D10678C6F30316E3
:10FDB000052E02D0062957D062E0644E3668644FA3
:10FDC0003E60624E361D36683F1D3E605F4E08360F
:10FDD00036683F1D3E605D4E0C3636683F1D3E6006
:10FDE0005A4E103636683F1D3E60584E14363668FF
:10FDF0003F1D3E60554E18363668554F20373E60E1
:10FE0000524E1C3636683F1D3E60504E20363668D6
:10FE10003F1D3E604D4E243636683F1D3E604B4EC2
:10FE2000283636683F1D3E60484E2C3636683F1DEA
:10FE30003E60464E30363668454F40373E60434E52
:10FE4000343636683F1D3E60404E383636683F1DBA
:10FE50003E603E4E3C3636683F1D3E603B4E40366F
:10FE600036683F1D3E6002E01678360708D10678F6
:10FE7000C6F30316032E06D0042E04D0052E02D09E
:10FE8000062907D019E0D4F85812324A01F04F0180
:10FE9000116002E0117809070FD10078C0F3031058
:10FEA000032803D0042801D0052806D12A48016878
:10FEB000C90702D06FF0010101602248743801685F
:10FEC00041F470010160BFF34F8FBFF36F8F4FF0AC
:10FED0001021D1F80002002803DBD1F80402002829
:10FEE00022DA1E4A15601E480468002CFCD0152436
:10FEF000C1F800420568002DFCD0C1F80442016839
:10FF00000029FCD0136001680029FCD0BFF34F8F9B
:10FF10000C48F0380168134A01F4E06111430160B4
:10FF2000BFF34F8F00BFFDE710490F480860F0BDD9
:10FF3000E00F00F0403501400DF0ADBA00C00740C1
:10FF40003C050040FCED00E01056004004040010A9
:10FF500020C50040E40E00400004004004E50140DC
:10FF600000E401400400FA050090D003282200209C
:10FF700004220249024802F01BBA00008028002037
:10FF80000080004004220249024802F011BA000039
:10FF90008C2800200090004004220249024802F010
:10FFA00007BA00009828002000A00040062202495D
:10FFB000024802F0FDB90000A428002000A0014082
:10FFC0000448017F04480029024901D004F08FBE93
:10FFD00004F0FEBD08280020002000400FB4054BAF
:10FFE00010B503A9044A029800F0ECF810BC5DF8C3
:10FFF00014FB0000972102000022002002E008C844
:020000040002F8
:10000000121F08C1002AFAD170477047002001E092
:1000100001C1121F002AFBD17047000001212028D6
:1000200003DA81400548014003E0402802DA203825
:10003000814009B10120704700207047FC06FFBCD9
:100040002DE9FF5F82B00021DDE90430020DDDF80B
:1000500040B0034318D044F61050A2F2FF3242439E
:100060001514119801281FD0A5EB0B00401C5FEA66
:10007000000A4FF000064E4FDFF83891B046504668
:1000800015D5CAF1000413E0119801244AA30128F0
:1000900001D16FEA0B010298119AC0E90031C0E961
:1000A000024206B0BDE8F09FCBF10000DFE7044656
:1000B0000021404A491842EB0450CDE9001012E0FB
:1000C000E00707D032463B4640464946FFF7D8F89E
:1000D0008046894632463B4610461946FFF7D0F81F
:1000E00006460F466410002CEAD1DDE90401DDE983
:1000F0000023BAF1000F06DAFFF7C2F842464B467A
:10010000FFF7BEF805E0FFF72DF942464B46FFF733
:1001100029F904460E460022284BFFF7F5FA03D8CA
:100120004FF0FF30014607E00022254B20463146C4
:10013000FFF72BFAFFF7D0FA102409E0002C0ADBB6
:100140000A220023FFF793F9039B30321A55641EED
:1001500050EA0102F2D1641C039AC4F11103144461
:10016000119A012A03D0012208430DD10AE0084365
:1001700004D000204FF0110B119072E7A3EB0B0598
:100180006D1E0DE05B4504DD4FF0000205F1010539
:1001900004E003DA4FF00002A5F10105002AECD0DB
:1001A00002981199C0E90231C0E9004579E70000E1
:1001B000000014400000F03F300000000000F04359
:1001C0000000E03F2DE9FF4F95B09B46894606466B
:1001D00000250FE2252877D100242746F84A01217F
:1001E000059400E0044316F8013F203B01FA03F0B8
:1001F0001042F7D130782A2811D06FF02F033078D1
:10020000A0F13002092A16D8059A44F0020402EB44
:10021000820203EB42021044761C0590EFE759F886
:10022000042B0592002A03DA504244F4005405904E
:1002300044F00204761C30782E2816D116F8010FEF
:1002400044F004042A280DD06FF02F023078A0F17A
:100250003003092B09D807EB870302EB4303C718C8
:10026000761CF3E759F8047B761C30786C280FD0A5
:1002700006DC4C2817D068280DD06A2814D104E079
:10028000742810D07A280FD10DE044F400140AE04D
:1002900044F4801401E044F440147278824202D1A4
:1002A00004F58014761C761C307866280BD013DC9D
:1002B000582877D009DC002875D04528F6D0462884
:1002C000F4D047281AD19DE118E0632835D064287E
:1002D00079D0652812D195E1702873D008DC6728A1
:1002E000F1D069286FD06E280DD06F2806D1B5E007
:1002F00073282CD0752875D0782874D05A46179951
:1003000090476D1C75E1C4F30250022809D0032800
:100310000DD0D9F8001004280DD00D6009F10409A2
:1003200067E1D9F80010EA17C1E90052F6E7D9F8F9
:1003300000100D80F2E70D70F0E719F8041B8DF83E
:10034000001000208DF80100EA46012003E059F872
:1003500004AB4FF0FF3061074FF0000102D40DE015
:1003600008F101018846B9420FDA8045F8DB1AF836
:1003700008100029F4D108E008F101018846814203
:10038000FADB1AF808100029F6D105985B46A0EBB5
:10039000080721463846179A00F094FA284400EBE3
:1003A000080507E04DE029E10DE01AF8010B5A4677
:1003B00017999047B8F10108F7D25B4621463846B5
:1003C000179A13E142E00A220092C4F302524FF05E
:1003D000000A022A08D059F804CB032A4FEAEC712C
:1003E0000AD00DE029E02AE009F1070121F0070217
:1003F000F2E802C1914609E00FFA8CFC4FEAEC7179
:10040000042A03D14FFA8CFC4FEAEC71002907DA79
:100410000A460021DCF1000C61EB02012D2202E012
:10042000220504D52B228DF80420012203E0E207E7
:1004300001D02022F7E7904659E00A2102E010227D
:100440000DE010214FF0000A00910BE010224FF058
:10045000000A44F004040827009203E008224FF049
:10046000000A0092C4F30252022A05D059F804CBC4
:100470000021032A08D009E009F1070121F0070251
:10048000F2E802C1914605E01FFA8CFC042A01D172
:100490000CF0FF0C4FF00008220728D5702806D07A
:1004A000009B83F0100353EA0A0305D00EE04022BC
:1004B0008DF80420012208E05CEA010206D0302217
:1004C0008DF804208DF8050002229046009B83F0F1
:1004D000080353EA0A030AD15CEA010201D1620768
:1004E00005D530228DF804204FF001087F1E5828D2
:1004F00004D034A003900EA802900DE036A0F9E7D6
:1005000053466046009AFEF7B2FF84460398825C29
:100510000298401E029002705CEA0100F0D102983D
:1005200006A9081A00F1200A600702D524F48034D5
:1005300000E00127574502DDA7EB0A0000E000209C
:1005400000EB0A01009005984144401A0590E00331
:1005500006D45B462146179A059800F0B3F9054486
:10056000002706E001A85A46C05D179990476D1C08
:100570007F1C4745F6DBE0030CD55B462146179A06
:10058000059800F09FF9054404E030205A46179979
:1005900090476D1C0099481E00900029F5DC08E08A
:1005A000029802995A460078491C0291179990477F
:1005B0006D1CBAF10001AAF1010AF1DC65E100004D
:1005C0000928010030313233343536373839616229
:1005D00063646566000000003031323334353637ED
:1005E00038394142434445460000000000F058F9C4
:1005F0000544761C307800287FF4ECAD19B028460D
:10060000BDE8F08F620700D4062709F1070222F047
:10061000070CFCE80223E14603F000485FEA080CFF
:1006200002D00FF2702C0DE05FEA045C02D50FF2ED
:10063000682C07E05FEAC47C02D00FF2602C01E076
:10064000AFF2700C4FF0FF3823F00043CDF850C0EC
:1006500065280CD006DC452809D046281DD047283F
:100660003DD13DE0662818D067287ED138E00021D2
:10067000112F01DB112000E0781CCDE9000106A953
:100680000EA8FFF7DDFCDDE90F010E9A03910021B2
:10069000009207F1010A04914DE04FF000400097ED
:1006A000CDE9011006A90EA8FFF7CAFCDDE90F028B
:1006B00003920E9B11990022DDF80CA00093049286
:1006C00011B9791C00EB010AB7EB0A0004D4C0F1A0
:1006D000FF3007F1010A0490AAEB0700019044E003
:1006E000012F00DA01270021112F01DD112000E088
:1006F0003846CDE9000106A90EA8FFF7A1FCDDE907
:100700000F010E9A0391002104910092BA4621072D
:100710000CD40399514500DA8A46BAF1010F05DD80
:10072000009AAAF10101515C302908D0B84202DADE
:1007300010F1040F06DA0121CDE9011015E0AAF14C
:100740000101E9E7002805DC049901440491AAEBC2
:10075000000102E0411C514500DD8A460499401A1F
:10076000401C01904FF000400290200704D40198F3
:10077000504501DBCDF8048000208DF84F00029831
:100780000DF14F07B0F1004F25D02B200E900298AD
:100790004FF0020800280CDA404202902D200E9003
:1007A00007E00A210298FEF74CFE3031029007F86C
:1007B000011DB8F10001A8F10108F2DC029800283F
:1007C000EFD1791E0E980870307800F0200040F0CC
:1007D000450007F8020D12A8C01B00F10708149885
:1007E000007800B1012000EB0A01019801EBE071F3
:1007F00005984144401A401E0590E00306D45B462C
:100800002146179A059800F05DF805441498007881
:1008100018B15A46179990476D1CE00324D55B46E2
:100820002146179A059800F04DF805441CE00498FD
:10083000002807DBDDE90301884203DD0098405C06
:10084000179901E0179930205A469047049805F10E
:100850000105401C04900198401E019004D12E20F7
:100860005A46179990476D1CBAF10001AAF1010A86
:10087000DDDC05E017F8010B5A46179990476D1C0F
:10088000B8F10001A8F10108F4DC5B462146179A93
:100890000598ABE62D0000002B00000020000000B2
:1008A0002DE9F041044600251E461746880404D46D
:1008B00005E039462020B0476D1C641EF9D5284656
:1008C000BDE8F0812DE9F041044600251E46904622
:1008D000C80301D5302700E02027880404D505E0AF
:1008E00041463846B0476D1C641EF9D52846BDE820
:1008F000F0812DE9FC47002517880646158090F801
:100900002D001446894630B13A462146484600F04B
:1009100089FD050009D1B0784FF00C0A18B3208882
:10092000C846001DB84202D95046BDE8FC8768465B
:1009300079DF0028F9D12088032108F800102088E9
:100940001921401C80B2208008F800102088401C2B
:1009500080B2208000EB0801BDF8000004F03FFAEF
:10096000218808442080F0780222C8B1218896F9B5
:10097000033001F1030C4846BC45D5D842542188C8
:100980004FF0010C491C89B2218000F801C0218878
:10099000491C89B2218009F801302088401C208040
:1009A0007068B8B1218890F9003001F1030C484615
:1009B000BC45B9D8425421880A22491C89B22180F9
:1009C00042542188491C89B2218009F801302088CD
:1009D000401C2080308950B1CDE900474B460622AB
:1009E000022106F1080004F047FA05009DD1308A83
:1009F00050B1CDE900474B460722032106F1100014
:100A000004F03AFA050090D1308B50B1CDE900479F
:100A10004B461522142106F1180004F02DFA0500AA
:100A200083D1306A30B13B462246494601F032FA62
:100A30000500DBD1706A30B13B462246494601F0E1
:100A40002DFF0500D2D196F82C0038B13B46224646
:100A50004946304603F0C2FB0500C7D1307838B1B3
:100A60003B4622464946304601F04AFF0500BDD1CB
:100A700028465AE7134A0021535C0BB1012203E0D8
:100A8000491C0629F8D300220F49012806D0022864
:100A900009D003280CD0042812D10DE0487810B1F9
:100AA0000AB101207047887810B10AB1022070475E
:100AB000C87808B103207047087908B1042070474E
:100AC0000020704799210020AC26002010B501229B
:100AD0000221002000F0C8FF08B1072810D107222A
:100AE0000221012000F0C0FF08B1072808D1002131
:100AF0000A22084600F0B8FF08B1072800D10020FC
:100B000010BD000030B5A7B03C2101A8FEF7ADFB39
:100B100002208DF8040000248DF8064005208DF891
:100B200007003C2110A8FEF7A0FB0E4801251590F8
:100B3000ADF8505020211FA8FEF797FB40202390CE
:100B40008DF87F50B4202490074B1FAA10A9009461
:100B500001A800F0B9FA002801D000F079F827B018
:100B600030BD00002A2100208B3C020070B500241B
:100B7000064D06E06868012110F8340002F0C0F864
:100B8000641C28788442F5D3002070BDBC2100206D
:100B9000F8B515460C460646052A01D20720F8BDD1
:100BA00002F094F918B902F063F90028F7D110495E
:100BB00000204E600C70C1E902500E4D08610DE03E
:100BC00006EBC4006968009181788DF80110007807
:100BD000094A694602F0E6F80028E0D1641EE4B252
:100BE000EED2BDE8F840054A0021024800F064B8A2
:100BF000BC2100200050020069220200C91F02002F
:100C00000BA1012002F058FF02F0BAFE02F0BCFE78
:100C10000028FBD1BFF34F8F0B4801680B4A01F44A
:100C2000E06111430160BFF34F8F00BFFDE700009B
:100C30004150505F4552524F523A4552524F523AEC
:100C4000466174616C0D0A000CED00E00400FA05C9
:100C50000EB500210091CDE901106A4644F2010071
:100C6000FFF7CEFF0EBD10B58268C368934203D074
:100C700001F07EFA002010BD052010BD29B112B18F
:100C8000531E134203D0092070470E2070470160A5
:100C9000838000218160C1600846704710B582687A
:100CA000C3689A1A83889A4203D801F06BFA00202D
:100CB00010BD042010BD0000074B5B6823B12AB1B2
:100CC00020B10068037C1BB10820704707207047E3
:100CD0004174426100207047E02100202DE9F04777
:100CE000074698461446894690074FF0000526D1DE
:100CF0002CB303F0BDF8134E06F11000C6F80C80BB
:100D00000570457080F802904460756035707570AC
:100D10001420FEF769FE07211420FEF79CFE142024
:100D2000FEF778FE0848076007211120FEF793FEC2
:100D30000548001F0068B0600020BDE8F08707206C
:100D4000FBE70000D0210020081501402DE9FC47F9
:100D5000DFF87890D9F8043073B368B3052902D26C
:100D60000720BDE8FC87436933B3437C012B25D0C2
:100D7000002704460025884616468DF80050684630
:100D800000F0CAF801A804F05FF8C8B101210170B1
:100D90000F4944600968C0E90218C0E904769DF86B
:100DA000040089F801009DF8000000F0D9F8142033
:100DB000FEF746FE2846D4E70820D2E70F46D8E7DC
:100DC00004259DF8000000F0CBF8F3E7E0210020B7
:100DD000041501400649496839B130B1416921B172
:100DE00000210174022103F0E7BB082070470000D6
:100DF000E021002070B50A4E01460A48B578FFF799
:100E000032FF04464DB10020B070711C0122C81D94
:100E100002F0F8FA08B1FFF71BFF204670BD000092
:100E2000F0210020D0280020F0B5284E89B01F46C0
:100E30000D00044672603BD0A888296882B224481D
:100E4000FFF71CFF002834D1A889A96882B2204886
:100E50001030FFF713FF00282BD120221D496846D0
:100E6000FEF7EAF960690690207C00B101208DF858
:100E700014008DF81C70607C00B10E208DF81500F8
:100E8000E0680290A068039020680190606800907C
:100E90000E48114A6946083002F080FA002808D14D
:100EA000B0702068401C04D09DF81D0018B106E009
:100EB000072009B0F0BD0548083002F0FBFA0349ED
:100EC0000122491CC81D02F09DFAF2E7F021002022
:100ED000D028002008500200D94A020010B501466F
:100EE0000B48FFF7DBFE040010D10A4802F02CFC8F
:100EF00060B9084906480839FFF7B5FE30B9054919
:100F000001220839034802F099FB0446204610BD2F
:100F1000E0280020F821002030B5EFF3108172B6F0
:100F20000D4A9468012324B10370002900D162B6F0
:100F300030BD93604FF0E023D3F88051074C25403B
:100F40001560C3F88041D3F8844154605A17C3F840
:100F5000842100220270E8E7F0280020FC06FFBC94
:100F60000B498A68002A11D000280FD1EFF31080B6
:100F700072B60B684FF0E022C2F800314B68C2F83D
:100F8000043100228A60002800D162B67047000058
:100F9000F02800202DE9F041064608680C46411C67
:100FA0004FF0A0474FF0010506D005FA00F1C7F851
:100FB0000815206802F059FC6068411C02D000212D
:100FC00002F040FC3079204901EB4010A169007F1C
:100FD00000283068C0F8241525D0607D227D316856
:100FE0001043C1F86C05D4E900123068C0F80C1544
:100FF000C0F8142524E0A068411C02D0002102F0B2
:1010000021FCE068411C05D08540C7F80855E06820
:1010100002F02BFCD4E902123068C0F80825C0F8B1
:101020001015BDE8F081607D217D32680843C2F86B
:101030006C05D4E900123068C0F81425C0F80C150E
:10104000207D0128D7D0ECE708280020034908427A
:1010500001D10120704700207047000000C0F0FF60
:10106000F0B50C4693B01F210726ADF80010ADF87F
:101070000410002750B1C17849070DD56A4602A96E
:10108000FFF737FC002808D102AD02E00025ADF8DB
:1010900000706CB1E07810B1304613B0F0BD01AA19
:1010A0000AA92046FFF725FC0028F6D10AAA02E08B
:1010B0000022ADF80470BDF80400C3B2BDF8000012
:1010C000C1B2284672DFE8E72DE9F0471F46DDF898
:1010D000208013468946040042D0EBB3404D0120E6
:1010E00000262870EE70202219463E48FEF7A4F82C
:1010F000C5E904784FF6FF702881AE613948AE83A8
:10110000AE773C212030FEF7B0F836482178203009
:101110000170A1788170E178C170617841703149C6
:10112000D4E90423C1E90C23D4E90223C1E90A2349
:10113000D4E90623C1E90E23616AE1B100F13C0163
:1011400000F1480241628A60636A1B880B80616A11
:10115000436A8988998000E002E00021436A07E041
:101160000E20BDE8F087656AAD686D5C5554491C7A
:101170009D888D42F7D8A16AD9B11A4A9432A2F15A
:101180000C018A608162A36A9B888B80A16A836A52
:10119000098819800021836A04E0A56AAD686D5C46
:1011A0005554491C9D888D42F7D894F82C1080F82E
:1011B0002C10216A49B10A490A310162226A528817
:1011C0004A80216A026A09881180616801B1416020
:1011D0004946BDE8F04703482030FFF741BF000013
:1011E00080210020AC26002010B50188144C102965
:1011F00018D011291CD01B2919D1007A002816D12A
:10120000E0780521401CB0FBF1F201FB120000BFA9
:1012100000F018F800280AD06169002907D0BDE85D
:1012200010400847C17B012901D18088208110BD71
:1012300000216171808821898842F8D10120E7E787
:10124000802100202DE9F0413D4C804686B0207879
:1012500048B184F8038004A800F0A4FF0498012694
:1012600028B1667067E0082006B0BDE8F08100256F
:10127000A561344FA583A577787810B1E07801286F
:1012800006D0B87858B1E078012801D0022806D1FC
:10129000216919B126710820884700E02571404670
:1012A000FFF7E8FBE070216939B1032801D0042879
:1012B00003D1387808B1607990B1A5710095029595
:1012C000019503958DF800508DF808501C48E17881
:1012D0001830052925D2DFE801F03008111D210062
:1012E000E571A67107208847E8E7A67001908DF8A0
:1012F0000060ADF80C50ADF80A5014E00221A17066
:1013000001908DF80060B889ADF80C003889ADF80F
:101310000A0008E0684602F0B5FF02E0684602F005
:10132000D5FFE07818B1684673DF00289CD12169A9
:1013300009B1A0788847002096E7A570F7E700007C
:1013400080210020AC26002070B5054601461C22F5
:101350000F48FDF771FF0F4C00262670286830B14A
:10136000016861604068A060201D7ADF02E00948E2
:10137000001D7BDF00280AD14FF6FF706080667089
:10138000BDE87040044A00210448FFF795BC70BDD9
:1013900080270020A0210020E94D0200D84F020044
:1013A00070B51E4C068800231B49E289102E15D00B
:1013B0001B4D112E1CD0122E29D0502E17D130F8D3
:1013C000061F914213D14189022910D10C3000F03F
:1013D000F6F888B1BDE8704000F0C8BD84884C8044
:1013E0000469CC60406908614B70002AF2D070BD7E
:1013F0004FF6FF7048804B702868FFF7EBFC002821
:10140000F5D0A1690029F2D0BDE870400847826894
:10141000CA60C0680861DDE7A021002080270020A5
:10142000D84F02007CB5054608880C46093090422A
:1014300001D90C207CBD68466DDF0028FAD12188D7
:101440000820685420881B21401C80B22080295429
:101450002088401C80B220802844DDF80110016003
:10146000BDF8051081802088801D80B220809DF805
:101470000010490800D0012129542088401C2080F8
:1014800000207CBD10B50446FFF78AFF21460748BF
:1014900000F040F8204602F007FC2046FFF7A4FECB
:1014A0002046BDE8104000F06DBA0000F422002094
:1014B00030B5174B0D4604000FCB85B08DE80F00FB
:1014C00023D015B34FF6FF70A0822868A0610020DA
:1014D000A0752146684663DF002814D120788DF876
:1014E00012000120ADF81000A21C04A9A0DF002802
:1014F00009D12946204602F0F2FC002803D12946F2
:10150000204603F05BFA05B030BD0E20FBE700007B
:10151000DC4F020010B5002822D0002920D00A8814
:10152000102A18D0112A18D0502A19D104468A1D21
:10153000C888238A1231984202D15389022B10D0D5
:10154000A38898420CD1A369002B09D05289204668
:10155000BDE810401847898801E04FF6FF7181828D
:1015600010BD084600F02BF800B10120A07510BD99
:1015700007B584B068B1828AA2F57F43FF3B0AD0E9
:10158000827D42B1BDF81820142A06D9072007B081
:1015900000BD0E20FBE70820F9E70022009201922F
:1015A000029203928289039106A90291ADF800206C
:1015B00001218DF80210808A6946A6DFE7E70078EE
:1015C00000F001007047000000B5134889B0002307
:1015D000006807905022114907A802F009FF08B1DE
:1015E000FFF736FB6A460121002002F0EBFE08B14E
:1015F000FFF72EFB1720ADF81000684602F092FEB0
:1016000008B1FFF725FB064802F082FE002801D052
:10161000FFF71EFB09B000BD584F0200A4220020B6
:1016200085140200F8B50646114C00208DF8000024
:1016300020684FF0FF3548B1007950B1002000F02C
:1016400015F930B12068007918B10FE06FF07E0015
:10165000F8BD216801236A46487A0C693D21A047FC
:1016600005469DF8000000F00F0030702846F8BDD8
:1016700044210020FEB500212F4C8DF800108DF87C
:1016800004100291014620600123CD68407A01AA2E
:101690000721A847216805460123487A0E696A4652
:1016A0000021B047216805449DF800000870487A81
:1016B00001230E696A461946B047216805449DF822
:1016C00000004871487A01230E696A460221B0473A
:1016D000216805449DF800008871487A01230E694D
:1016E0006A460321B047216805449DF80000C8718F
:1016F000487A01230E696A460621B04721680544ED
:101700009DF800000872487A02230E6902AA04219B
:10171000B04721680544BDF808004880487A012395
:101720000E696A460721B047226828449DF80010D8
:1017300040B21171FEBD0000442100202DE9FC41A2
:1017400006460020284C8DF800008DF80400206823
:101750004FF0FF3520B101A8FFF764FF20B140E052
:101760006FF07E00BDE8FC819DF804004FF4167711
:1017700048B1216801236A46487A0D693D21A8478E
:1017800005001CD02BE0216801236A46487A0D69C8
:101790003D21A847050024D19DF80000012366F3F0
:1017A00003008DF8000021686A46487ACD683D2123
:1017B000A84745B2206841693846884711E09DF83E
:1017C0000000012220F00F008DF8000069463D2046
:1017D00000F076F805462068416914208847002EFD
:1017E000D1D12846BEE70000442100202DE9FC416C
:1017F000064600201C4D8DF800008DF80400286876
:101800004FF0FF3420B101A8FFF70CFF20B122E018
:101810006FF07E00BDE8FC819DF8040018B1002047
:10182000FFF78CFFB8B9286801236A46477A046934
:101830003E213846A04704000DD19DF80000012349
:1018400066F301008DF8000029686A46487ACC6882
:101850003E21A04744B29DF8040018B1FFF76EFF87
:10186000204444B22046D5E744210020F8B505467F
:10187000124C00208DF8000020684FF0FF3650B168
:10188000477A0123D0F810C06A4607213846E0475E
:1018900020B13046F8BD6FF07E00F8BD8DF80050E5
:1018A000216801236A46487ACE680721B04740B2D2
:1018B0000028F2D121680D71F8BD000044210020FC
:1018C000F0B406460748006840B1457A1346C4683C
:1018D0000A4631462846A446F0BC6047F0BC6FF08B
:1018E0007E0070474421002007490B5C4FF0A04167
:1018F000D1F804250120984020EA0203C1F80835F8
:101900001040C1F80C057047BE4F02000249085C48
:10191000002101F0CCBF0000BE4F02000249085C6C
:10192000012101F0C4BF0000BE4F02000549095C5F
:101930004FF0A040D0F80405C84010F0010000D0DE
:1019400001207047BE4F020010B500242046FFF76B
:10195000DDFF641C032CF9D310BD10B50024204614
:10196000FFF7DCFF641C032CF9D310BD044B0246C7
:1019700000211B784FF0FF30934200D1084670479A
:10198000BD4F020010B51A4C0188606810290ED0B6
:1019900011292BD1401E606028D1FFF797F800284D
:1019A00024D02168002921D0BDE810400847D0B9D3
:1019B00000210122084600F057F808B107280FD18E
:1019C00007220221012000F04FF808B1072807D1B3
:1019D00004220221002000F047F820B1072802D09D
:1019E000216801B188476068401C606010BD00003C
:1019F000782100202DE9F0410D468046FFF7B6FF23
:101A000000282BD1174F16487C1C261FFDB1012D35
:101A10000BD0022D22D16578002D1FD0316900290D
:101A20001CD02846BDE8F04108472578617859B1B7
:101A3000B1680C4A01EB81014900521E8068FFF732
:101A400085F908B986F80280A0783870E4E78068E4
:101A5000FFF7C0F93878A578A842DDD0BDE8F0815D
:101A6000C44F02006721002003004FF000000AD19C
:101A7000094B012A02D1012907D0002251B10129C5
:101A800004D0022904D0072070470E221A70704734
:101A90005A7070479A70704768210020044A0146C6
:101AA0000020127BD20702D0084600F003B870472E
:101AB000642100202DE9F047594C05460026607846
:101AC00018B100206070FFF73FFF0120554F4FF421
:101AD0007A694FF4C87A4FF06408182D2CD2DFE8E9
:101AE00005F0890C0C2C3A4751565A615A619B6992
:101AF00069696969898C8F929B9B0020FFF716FFAB
:101B000000284FF0000008D0FFF700FF022D02D19F
:101B10004FF4E16006E0484604E0FFF7FFFE022DC7
:101B20002ED05046B0FBF8F12570A068414300224A
:101B30003868FFF70BF9064659E00020FFF7F6FE7C
:101B400028B10020FFF7E2FE4FF44870EAE70020DA
:101B5000FFF7E4FE14E00020FFF7E8FE00284FF056
:101B6000000002D0FFF7D2FED5E7FFF7D7FED8E797
:101B70000020FFF7DBFE0028E9D00020FFF7C6FEBB
:101B8000C820CFE70020FFF7AFFE257007E0002058
:101B90003FE025702BE060700120FFF7A5FE0022DA
:101BA000A168C5E760700120FFF79EFEA06800EB0A
:101BB0008001BCE77868FFF70DF90646D5F1110002
:101BC00000D01EB10220FFF7A1FE10E001280BD9C2
:101BD000C82110FB01F1B1FBF8F1A06800224143DC
:101BE0007868FFF7B3F806460220FFF797FE304605
:101BF000BDE8F087FFF7A8FECBE7FFF7A5FEC6E735
:101C0000FFF7A2FE04E0FFF79FFE0020FFF786FE2D
:101C10000120FFF783FEBCE7FFF79FFEB9E7000056
:101C200064210020C44F0200F8B5461C00208DF846
:101C300000000D4601246846FFF76EF9114A10684E
:101C40002860D2E900109568081A2B1A701C5B1CDA
:101C500098420FD963B10C480C4B294000681B68AF
:101C600002EB810163F39F20C8601068401C106084
:101C7000002401E0881910609DF80000FFF770F95A
:101C80002046F8BD642900204850020010220020A0
:101C9000034803C8814201D10120704700207047EA
:101CA0006429002070B50F4D012906D00E4C002686
:101CB00066606078012808D00CE02868BDE87040B4
:101CC000002240F6CD41FFF741B80120207028687E
:101CD000FFF780F86078002803D12868FFF77AF8CA
:101CE000267070BD744F020030210020134810B5DB
:101CF000042101700121417000218170104941606F
:101D000040F266620121FEF743FFFEF72FFF0D4A06
:101D100001210D48FEF7D0FF4FF0A040D0F810058C
:101D2000000910F0010F08D00748002240F6CD410D
:101D30000068BDE81040FFF709B810BD3821002049
:101D4000A51C020079450200744F020005494FF0BE
:101D5000FF32082841F8202002D3084480F84820A8
:101D600070470000B0270020F0B54FF0FF3512B1EA
:101D70000023082601E008230C260C4C05E000BFD8
:101D800054F823707F1C04D05B1CB342F8D3284660
:101D9000F0BD26185DB286F8305044F82310002AB2
:101DA000F5D1E11881F84800F1E70000B0270020E4
:101DB0000249084490F9300070470000B027002025
:101DC00070B5084C050009D010342168002907D0EF
:101DD00008682060496828468847F6E70834F4E731
:101DE00070BD00009C2700202DE9F05F2648416867
:101DF000F1B3DFF898B00E688146DBF800408768E1
:101E00008078E11B21F07F45ED1CB0B9DFF88080C0
:101E10004FF48030C8F84403C8F804031120FDF7DC
:101E2000E3FD1120FDF7F6FD4FF0010AC8F800A010
:101E30002F2000F0B1FE89F802A0B54200D235464D
:101E4000124BE8193C3320F07F401860DBF800109B
:101E50005A46091B21F07F41001B20F07F40C91C1E
:101E600081420FD9106818602F2000F095FE00E025
:101E700004E0BDE8F05F1120FDF7E2BDBDE8F05FD2
:101E800001F0F6BFBDE8F09FD0210020041501400D
:101E9000001001402DE9F04117880646B81D144690
:101EA0000D46984202D90C20BDE8F0813188072206
:101EB00006290AD34FF4486C4FF6FF73614501D9E8
:101EC000994202D17088062801D21046ECE760459D
:101ED00001D99842F9D1994203D0984201D0814268
:101EE000F3D80520E85520881221401C80B22080BC
:101EF00029542088401C80B220804119308802F08B
:101F00006EFF2188084480B220804119708802F059
:101F100066FF2188084420800020C5E7FEF798BEB0
:101F200000B587B01C216846FDF79FF900204FF4EB
:101F30002031CDE900014FF47021029103218DF889
:101F40000C10ADF80E008DF81000064805900648FC
:101F500006906846FFF7F8F9002801D0FEF778FEF2
:101F600007B000BD913D02001D1F0200F8B51348E7
:101F700000F0F8FA114D0026114C0C3D30B16169AA
:101F8000B9B101208DF80000684611E0287820B131
:101F9000616971B18DF80060F6E7687858B1A168A1
:101FA000084800220068FEF7D1FE10B1A16901B116
:101FB00088472E70F8BD6168F2E70000AC21002070
:101FC00080270020D84F02002DE9F041002601258E
:101FD000144C22E06068226900EBC607387805FAE5
:101FE00000F1114217D08A43226100F037FF024608
:101FF0003878E36805FA00F1194002FA00F39942D3
:1020000009D17978012901D0012100E00021514056
:102010007A6802B19047761CF6B220788642D9D30E
:10202000BDE8F081BC21002030B530498BB00B7881
:1020300013B15A1ED2B200E063222D4C34F8133093
:10204000B3F57A7F40D934F81220142A3CD2886044
:10205000CA68C860821A4878C83444F82020401CF6
:10206000C0B24870092801D900204870606A78B170
:1020700028216846FDF7F9F80021684654F8212028
:1020800040F82120491C0A29F8DB0922002103E03D
:1020900018A017E000210AE000EB810450F821307D
:1020A0006568AB4202D940F821506360491C9142F7
:1020B000F2DB521E002AEDDC039A0799891A78296F
:1020C00005D913A0FDF78AFF00200BB030BD002218
:1020D0005FF0030150F82130491C1A440729F9DD4B
:1020E0001248B0FBF2F0C0B2EFE700004821002038
:1020F0005C25002031205761697420666F7220765C
:10210000616C6964206461746120210A0000000030
:1021100032205761697420666F722076616C696441
:10212000206461746120210A00000000E093040033
:102130000E4910B50A784C780023A24212D0521CE6
:10214000D2B20A70022A00D10B70084A0B781832FA
:1021500052F8232002608868104420F07F40886095
:10216000012010BD0360002010BD0000D021002020
:10217000826883881A4003689A5C0A708168491CE7
:1021800081607047C26883881A4003689954C168A7
:10219000491CC160704710B50446C0B2FEF79EFEF0
:1021A000204610BD20B10349496E016000207047F0
:1021B00003207047FC2800200EB513A19DF80800ED
:1021C00020F00F00401C20F0F00010308DF80800C7
:1021D000062202A87CDF08B1FEF73AFD002000903D
:1021E00001901021ADF80400ADF800104FF4C87054
:1021F0003C21ADF80600ADF8021068467ADF0028F1
:1022000001D0FEF725FD0EBD4D2D42616E6400002C
:1022100007490A78521CD2B20A70642A01D30022FC
:102220000A70044A097880B222F811007047000051
:10223000482100205C25002010B5052001F00BFB93
:102240000E2001F008FB0F2001F005FB102001F02B
:1022500002FB0021042001F0ECFA0121BDE810404E
:10226000092001F0E6BA00002DE9F041124E0746C0
:102270000125BD403068FEF7ADFD00280DD10F4CA3
:102280002069284207D1384600F0E8FD0028E068C0
:1022900005D0284304E0A8432061BDE8F081A843AD
:1022A000E060206928432061A1683068BDE8F04102
:1022B0000022FEF74BBD000000500200BC210020B0
:1022C000F8B51C4C2078002832D0E068002658B1C0
:1022D0000025607800282BD1684648DF052805D006
:1022E00030B1FEF7B5FC0AE00125F2E7012606E071
:1022F000009800F0D5FC216909B1009888479DB984
:102300006078002814D16088ADF800006946A068A4
:1023100061DF052803D020B1FEF79AFC04E0012517
:1023200002E0D4E902018847002ED2D0002DE6D089
:10233000F8BD00001422002070B50E460446007956
:1023400018494FF4A27501EB4010017F2068A1B13C
:102350004FF4887101F07BFC4FF49071206801F01C
:1023600076FC4FF49271206801F071FC29462068D8
:1023700001F06DFC0C49206809E04FF48E7101F00A
:1023800055FC2946206801F051FC08492068C0F836
:102390000413206800F0B0FC3146BDE8704000F046
:1023A0008FBC0000082800201003020080000200FB
:1023B0002DE9F84300251646884604462F4614E0CA
:1023C0004FF4A07000EB85004FF480312258A940F3
:1023D0004AB1D4F804230A4205D02750215800916D
:1023E000D8E9002190476D1CEDB2B542E8D3BDE8B5
:1023F000F8832DE9FF470D464FF49277044639469E
:1024000001F004FC4FF002094FF001084FF482760E
:1024100040B13946204601F0FEFB3146204601F02E
:10242000F5FBB0B3B2463146204601F0EFFB4FF06A
:10243000FF36002770B35146204601F0ECFB05F152
:102440000C0001AB07C883E8070095F8230078B1BA
:10245000287B01282DD0D4F84C05C0B28DF8060099
:10246000287B022828D0D4F84C05C0B28DF807008C
:102470004FF4B071204601F0CEFB4FF4AE71204610
:1024800001F0C9FB95F8250080B395F8230068BBDF
:102490003CE000E013E0A868C4F80803C5F8089021
:1024A000A868C4F80403C4F82080C4F81480BDE808
:1024B000FF87D4F83C05D0E7D4F83C05D5E74FF4C6
:1024C000A471204601F0A7FB287B80B14FF4007077
:1024D000C4F80002801CA860C4F80863A868C4F8A7
:1024E0000403C4F80880C4F82080E0E708E005F1A0
:1024F0000C0001AB07C883E8070095F8250028B950
:102500000020C4F80002AF60C4F80863D4F8C40423
:10251000C4F8C404810702D58DF8008006E04007A6
:1025200002D58DF8009001E08DF8007095F8250037
:1025300008B985F82470D5E9002168469047B6E7C8
:102540000121814003484068014201D001207047C9
:1025500000207047B4210020014601208840FEF78A
:1025600075BD0000054940880A88904204D3498817
:10257000884201D80120704700207047A421002024
:10258000012181400348014201D001207047002011
:1025900070470000FF3F0F002DE9F043264CA4F1E7
:1025A00010092278D9F8048099F80350404694F82D
:1025B00001C0D9F8086031E002EB42036168521CA7
:1025C00001EBC301A378D2B2934200D100220B7871
:1025D000022B02D0032B21D11DE003464F68194680
:1025E00003E0B94203D00B46C969B9B1F9E7A9B113
:1025F0008B4205D1C06918B9104E0125B56000267F
:102600000F68C969D96149B10B683B440B6005E0AB
:102610000174C06900E000210028F9D19445CBD1B4
:10262000C9E9010689F80350404502D00120BDE800
:10263000F0830020FBE70000E021002000100140B3
:102640002DE9F0412A4F0446002607F11005D7F87E
:1026500004803EE002D02046E4691DE028786968E5
:1026600000EB4002401CC0B201EBC2012870AA7806
:10267000904200D12E700A784868012A2BD1027C42
:102680004ABB8A684260CA6882600A69C260496956
:102690008161F97801B146604368BA68DFF854C0D7
:1026A000991A21F07F41614502D28268114406E007
:1026B000D11A826821F07F418A4202D9511A016001
:1026C00000E006604660012186600174C66101F089
:1026D00035FF002CBED1287869788842BED1796850
:1026E000414502D00120BDE8F0810020FBE7000059
:1026F000D0210020FFFF7F0010B5074C607808B1A3
:10270000012010BD5D20207041F2883000F0B8F942
:1027100001206070F4E70000402100202DE9FC4119
:10272000314D002401946978F1B3294620260978B7
:10273000D8B3C0208DF804608DF80500022301AAEB
:102740002A48009400F006FE212784208DF80470AA
:102750008DF805000094022301AA2978234800F08F
:10276000F9FDC6208DF804608DF805000094022361
:1027700001AA29781D4800F0EDFD10210F208DF8E9
:1027800004108DF805000094022301AA2978174847
:1027900000F0E0FD2E21C3208DF804108DF8050017
:1027A000022301AA009401E00EE010E029780F480E
:1027B00000F0D0FD40208DF804708DF805000094E5
:1027C000022301AA29780AE00020BDE8FC8100204C
:1027D0008DF804608DF80500022301AA00940348D7
:1027E00000F0B8FD4046F0E740210020904F020085
:1027F000FEF7EAFE0023234A05211846FEF76EFA8B
:1028000008B1FEF725FA01F093FF02F0BDF9FFF7DA
:1028100013FD01F023FC01F063FC01F053FC00F018
:10282000C5F8FFF769FF0120FFF778FFFFF7C4FC49
:1028300001F018FDFEF766F9FFF772FB12A0FDF735
:10284000CDFB0320FEF7FEFC0446FFF74FFA01F034
:1028500009FE200001D0FEF7FBF90F4E4FF0A04417
:102860004FF4004501F0F6FA3078012801D018B194
:1028700004E0C4F8085501E0C4F80C55C4F8085544
:10288000F0E700002C2200200D0A5541525420533D
:1028900074617274210D0A003121002070B5144654
:1028A00082880E4605462088111D0144921C9942DB
:1028B00001D8FE2A01D90C2070BD521C3254208848
:1028C000FF21401C80B2208031542088401C80B2FF
:1028D00020808119288802F082FA2188084480B279
:1028E0002080AA8842B1A96841B13044FCF7A4FC19
:1028F0002088A98808442080002070BD072070BD72
:10290000F8B50E46017814460546012901D16878CC
:1029100030B12088821C9A422DD8012902D006E0CD
:102920000720F8BD69780144891C994223D8181AF8
:10293000801E87B2ADF800702188B01C084469463B
:102940007DDF0028EDD12878022805D1BDF80010E0
:10295000B94201D809210AE00821012805D1687887
:10296000B84202D8ADF8000001E0ADF80070BDF843
:102970000000FE2801D90C20F8BD2288401CB0546C
:102980002088401C80B2208031542088401C208048
:10299000BDF80010084420800020F8BDC20800F0F7
:1029A00007030120895C98400840704710B5FDF787
:1029B00007F80748FEF75EFE0020FEF717FF072026
:1029C000FEF7BCFEBDE810400920FEF7B7BE0000D0
:1029D0004425002000F180400068002800D001203C
:1029E000704708B500F18040002101600068009048
:1029F00008BD000000283ED01F49204A096800BFDA
:102A000000BF00BF00BF00BF00BF00BF00BF9142BA
:102A10002FD000BF00BF00BF00BF00BF00BF00BF7E
:102A200000BF00BF00BF00BF00BF00BF00BF00BFAE
:102A300000BF00BF00BF00BF00BF00BF00BF00BF9E
:102A400000BF00BF00BF00BF00BF00BF00BF00BF8E
:102A500000BF00BF00BF00BF00BF00BF00BF00BF7E
:102A600000BF00BF00BF00BF00BF00BF00BF00BF6E
:102A700000BF0138C3D17047282200200024F40091
:102A800000283ED01F49204A096800BF00BF00BF90
:102A900000BF00BF00BF00BF00BF91422FD000BFEA
:102AA00000BF00BF00BF00BF00BF00BF00BF00BF2E
:102AB00000BF00BF00BF00BF00BF00BF00BF00BF1E
:102AC00000BF00BF00BF00BF00BF00BF00BF00BF0E
:102AD00000BF00BF00BF00BF00BF00BF00BF00BFFE
:102AE00000BF00BF00BF00BF00BF00BF00BF00BFEE
:102AF00000BF00BF00BF00BF00BF00BF00BF013864
:102B0000C3D17047282200200024F40000283ED0C2
:102B10001F49204A096800BF00BF00BF00BF00BFB7
:102B200000BF00BF00BF91422FD000BF00BF00BF59
:102B300000BF00BF00BF00BF00BF00BF00BF00BF9D
:102B400000BF00BF00BF00BF00BF00BF00BF00BF8D
:102B500000BF00BF00BF00BF00BF00BF00BF00BF7D
:102B600000BF00BF00BF00BF00BF00BF00BF00BF6D
:102B700000BF00BF00BF00BF00BF00BF00BF00BF5D
:102B800000BF00BF00BF00BF00BF0138C3D1704706
:102B9000282200200024F40000283ED01F49204AAB
:102BA000096800BF00BF00BF00BF00BF00BF00BF7B
:102BB00000BF91422FD000BF00BF00BF00BF00BFC9
:102BC00000BF00BF00BF00BF00BF00BF00BF00BF0D
:102BD00000BF00BF00BF00BF00BF00BF00BF00BFFD
:102BE00000BF00BF00BF00BF00BF00BF00BF00BFED
:102BF00000BF00BF00BF00BF00BF00BF00BF00BFDD
:102C000000BF00BF00BF00BF00BF00BF00BF00BFCC
:102C100000BF00BF00BF0138C3D170472822002089
:102C20000024F4002DE9F0410F4D0026287808B16A
:102C3000852616E00024AC606C602C61EC604FF0DF
:102C4000E020D0F80001012710F0010F03D1072187
:102C5000002000F035F801F0FDFB08B903480460DE
:102C60002F703046BDE8F0819C27002018050040F9
:102C700038B500208DF800006846FEF74DF9074C86
:102C8000207808B9FFF7CEFFE068401CE060012023
:102C9000A0709DF80000FEF763F938BD9C27002066
:102CA000002801D1FFF78CB8704700F01F02012106
:102CB00091404009800000F1E020C0F88011704789
:102CC0004907090E002806DA00F00F0202F1E0229F
:102CD00082F8141D03E000F1E02282F8001400F0F5
:102CE0001F02012191404009800000F1E020C0F85E
:102CF0008012C0F800117047000B40B2704700000E
:102D00002DE9F0418846054601F050F8234E002891
:102D100028461AD0FFF74CF8304490F84800800954
:102D2000032802D001280ED007E04FF0A040D0F8D1
:102D30001005E84010F0010F05D003212846BDE83A
:102D4000F04100F09CBD0221F8E701F03BF80028BB
:102D500022D02846FFF72CF804464FF4807000EB91
:102D600084000F4F81B207EB8400D0F8102542F0A9
:102D70000102C0F81025084600F0B8FDB8F1000FB8
:102D80000AD02846FFF714F856F82000002803D090
:102D90000120A040C7F80403BDE8F081B02700205F
:102DA000006000402DE9FC41DFF8A480044608EBF8
:102DB0000400002790F930001346C0170E46401C4F
:102DC00001D0082741E0F27819462046FEF7CCFFF3
:102DD0000546401C38D0B07850B14FF0A04000EB11
:102DE0008400D0F8001721F00201C0F8001707E0B6
:102DF00000217378204600910A46019100F0ECFC16
:102E0000F078C0B11348317800EB8500D0F8102578
:102E1000114B1A40C0F810254FF4F8524FF44033CC
:102E200002EA042203EA01410A43D0F810150A43DA
:102E3000C0F8102509E008EB0500327810F8481FAB
:102E400041EA8211017000E004273846BDE8FC81A8
:102E5000B027002000600040FFE0FCFF4FF0A041E1
:102E6000D1F81015C14011F0010000D001207047C9
:102E700070B5144D95F8540008B1082070BD0020BD
:102E8000411E2A18401CC0B282F830102028F8D306
:102E900000242046FEF75AFF641CE4B20C2CF8D341
:102EA00007210620FFF70CFF4FF4BE7000F01EFD57
:102EB00005494FF00040C1F80403012085F8540093
:102EC000002070BDB027002000600040034890F84B
:102ED0005400002800D0012070470000B0270020D7
:102EE0000121B1EB507F01D10120704700207047D4
:102EF0000121B1EB507F01D10120704700207047C4
:102F00002DE9F84F0427174E00248246A1464FF0C2
:102F1000010800BF8DF800906846FDF7FDFF08FA34
:102F200004F5354203D02046FFF70AFB60B19DF857
:102F30000000FEF715F827B104F10104AE43E4B236
:102F4000E8D13846BDE8F88F074908FA04F00027B1
:102F50004A68104348608AF800409DF80000FDF779
:102F6000FFFFEEE7FF3F0F00B42100202DE9F04105
:102F700014460D00074612D08CB10026FFF700FB67
:102F800078B13846FFF7DCFA68B1084800EBC700B3
:102F9000C0F81055C0F814453046BDE8F0810E2049
:102FA000FBE70726F8E70826F6E7000000F00140F7
:102FB00070B505460024FFF7CFFA68B12846FFF741
:102FC000DFFA18B12846FFF7BBFA38B104490120EF
:102FD000A8400860204670BD0724FBE70824F9E7F5
:102FE00004F501400448017809B1852070470121AA
:102FF0000170002070470000B42100202DE9F0414D
:10300000254C064612200D46C4F808032348017CCF
:10301000022918D0027C01464FF4807891F82E10D6
:10302000012A12D00222C4F8042301270774466043
:1030300005810022C26021B3458390F82D103046EF
:1030400000F08CFD25E0122002E0C2682AB10220C7
:10305000C4F804031120BDE8F081C660058361B99E
:103060004746384600F0C0FD0028FAD0384600F048
:10307000C3FD2946304600F071FD0220C4F8040368
:1030800007E02946304600F069FD404600F0B4FDF7
:1030900027600020DFE7000000700040502800207B
:1030A00070B50F4A05460C46107C08B1112070BD62
:1030B00002EB4501087F18B912F82D0F401C107063
:1030C000E0790877207A48772146284600F04EFDBF
:1030D000227AE179284600F07DFD002070BD0000D5
:1030E000502800202DE9F0411C4C054694F82C0096
:1030F00010B10820BDE8F08109B115B102E0072048
:10310000F8E7174D44F8101B164928780860091D88
:1031100068780860E878A07701272777002020707A
:1031200060776060104EE0776FF00040C6F80803EB
:103130004FF4827000F060FDA9780720FFF7C0FD12
:103140000220C6F80403A07F10B10120C6F80403D2
:103150000448F03807600020CCE700005028002029
:10316000FC4F0200F075004000700040044890F8E9
:103170002E0008B1002000E00420024908447047F6
:10318000502800200070004030B54FF480340568AE
:103190008C4013B1C5F8044301E0C5F8084300684A
:1031A00000EB8100C0F8402530BD0000016801221D
:1031B0000A600079034A00EB400002EB8000022124
:1031C0000172704780280020F0B40468049E40F229
:1031D0000115D4F800728D40AF43C4F80072046842
:1031E000D4F800521D43C4F800523346F0BCFFF738
:1031F000CBBF0000F8B504460D460079204900EB2E
:10320000400001EB8006307A08B10820F8BD3AB1E1
:10321000326068687060002003464FF4A07709E0D0
:103220000720F8BD226807EB800153505158401C1D
:10323000C0B2009161798142F4D82068E978000B2E
:1032400040B2FFF73DFD20686978D0F8042561F3AE
:103250000102C0F804252068A978D0F8082561F398
:103260000102C0F8082520682978D0F8102561F3FC
:103270000302C0F81025012030720020F8BD0000C4
:10328000802800200179064A01EB8101006802EBE9
:10329000C1010622C0F80025022081F822007047F3
:1032A0002828002070B506460D4600791F4900EB1E
:1032B000800001EBC00494F8220008B1082070BD22
:1032C0000020C4E90023A06084F8250084F82400CD
:1032D000A87B84F82700687B10B1284601F0D2F95A
:1032E000296840F20C60890001F1A041C1F8000793
:1032F0006968890001F1A041C1F80007D5E9001211
:103300003068C0F80815C0F80C25A968C0F8241565
:10331000206828B13068297B000B40B2FFF7D0FC51
:10332000012084F82200002070BD00002828002021
:103330003EB5074D2C68AD6800948DF801100192E0
:1033400002958DF802300022694600F015F83EBD66
:10335000F04F02003EB500250095069C8DF8011047
:1033600002958DF8023001920CB1202200E000227B
:10337000694600F001F83EBD30B40379064C03EB1A
:10338000830304EBC304006813460A460146204643
:1033900030BC01F0E3B90000282800202DE9F041FD
:1033A00005460079164F904607EB40140E46E07E26
:1033B00010B10820BDE8F081707F20772846FDF726
:1033C000E9FD5FEA080060603169216003D0317F68
:1033D0002846FEF7B1FF287907EB4010007F002850
:1033E000286801D0082100E00421C0F80015002061
:1033F000E0752076A0750121E176A076DAE700007D
:10340000082800202DE9F04105460079284E904615
:1034100006EB40140F46207F18B10846FFF760FD09
:1034200080B1626800234FF404704FF4017172B1EF
:103430002A7906EB4212127F002A2A6805D0C2F8C8
:10344000080304E01020BDE8F081C2F80813E27D13
:10345000B2B1227E7AB162685AB12A7906EB421281
:10346000127F1AB12968C1F8040302E02868C0F885
:1034700004131120E7E72761012384F8188005E091
:1034800084F817800020E76060762076287942462D
:1034900006EB40103946007F0028284603D0BDE8DF
:1034A000F04100F073B8BDE8F04100F01BB8000037
:1034B0000828002070B504460079094D05EB40103E
:1034C000017F00290AD1807E002807D1204600F024
:1034D00080FD2179012005EB4111887670BD000047
:1034E000082800202DE9F05F04460079264901EB09
:1034F0004015A87E184302D1204600F06AFD686896
:103500000028206806D04FF40171C0F80413002091
:10351000BDE8F09F4FF4A276314600F087FBB1463C
:103520004FF4927A4FF4847B5146206800F079FB87
:1035300006465946206800F074FB804649462068DC
:1035400000F06FFB074648EA07003043ECD056EA2C
:10355000070007D12946206800F0A8FCE87D697EB5
:103560008842E1D80020E8750EB10320D0E70FB102
:103570000F20CDE7A97E01200029216801D0086035
:10358000C5E74860C3E70000082800202DE9F05F88
:10359000894604464FF488759A469046002600688E
:1035A000294600F054FB4FF4A2773946206800F01A
:1035B0004EFB2068C0F83495C0F838852068BAF111
:1035C000000F14D0D0F8001241F02001C0F8001212
:1035D0002179DFF8648008EB4110406850B1206821
:1035E0004FF40471C0F804133046BDE8F09F012188
:1035F0000160EDE7AA46B9464FF4927B5146206838
:1036000000F020FB07464946206800F01BFB0546FA
:103610005946206800F016FB014647EA05000843BA
:10362000ECD02379002208EB4310C27501B10326C8
:10363000002DD9D00F26D7E7082800202DE9F04724
:10364000054600793F4E904606EB40140F46207F1A
:1036500018B10846FFF744FC30B1284600F074F872
:1036600020B11120BDE8F0871020FBE784F8168018
:10367000A7600027A78228794FF0010806EB4014C5
:103680003E46207F0028286825D04FF4907949468F
:1036900000F0DDFA4FF4AC7A5146286800F0D7FA12
:1036A0002868A17DA268C0F84425C0F8481528689C
:1036B000C0F808806068F0B94946286800F0C2FA8E
:1036C00080465146286800F0BDFA58EA0001F3D060
:1036D00058BBA7750FE04FF48E7A514600F0A6FA5A
:1036E0002868C0F808802146286801F057F9616809
:1036F0004FF4807089B13046B4E75146286800F035
:1037000090FA10B9A08A4845F7D1A08A484505D05B
:103710002146286801F042F900E08146A08AA17D97
:103720008842EAD3A08A484501D10F26D1E7514605
:10373000286800F076FA0028F9D02868C0F80C80D4
:10374000C7E70000082800200079044901EB401079
:10375000807D002800D0012070470000082800204C
:1037600070B5044600791149002601EB4015206828
:103770002A7FC0F80065686888B1207901EB4010A5
:10378000007F0028206801D0094901E008498C39F0
:10379000C0F808132068FFF7AFFAFFF786FA204653
:1037A00000F01CFBEE766E6070BD00000828002063
:1037B0001003020070B541EA4201DDE904564FF002
:1037C000A04441EA830141EA052104EB800041EA7B
:1037D0000641C0F8001770BD70B541EA4201DDE94D
:1037E00004564FF0A04441EA830141EA052104EB6D
:1037F000800041EA0641C0F8001770BD70B541EA8B
:103800004201DDE904564FF0A04441EA830141EA58
:10381000052104EB800041EA0641C0F8001770BDA5
:103820001CB5002100910B4601220191FFF7E6FF34
:103830001CBD1CB500220B46009211460192FFF7F9
:10384000B9FF1CBD1CB500220B4600921146019227
:10385000FFF7D4FF1CBD1CB5002100910B460122CF
:1038600001911146FFF7A6FF1CBD1CB50021009178
:103870000B46012201911146FFF7C0FF1CBD4FF01E
:10388000A04202EB8000D0F8002722F44032C0F8BA
:103890000027D0F8002742EA0141C0F8001770471E
:1038A0004FF0A04201218140C2F808157047012263
:1038B0004FF0A043824011B1C3F808257047C3F808
:1038C0000C25704718B5084B6C4601441B680093E3
:1038D00006E000BF54F82030D3F81035401C08C271
:1038E0008142F7D818BD0000EC4F0200034908B52B
:1038F0000844002101600068009008BD006000409D
:1039000002494058012800D0002070470060004064
:1039100030B5184C054689B0207828B160788542CA
:1039200002D1002009B030BD202213496846FBF7C0
:1039300083FC00208DF81400192000901A200190BB
:1039400005200390072002904FF0EB700690094885
:10395000001DFFF705FF0DB1002200E0074A0548F2
:103960006946001DFFF71AFD0028DBD101202070F9
:103970006570D6E70422002028500200794B02002F
:103980000120FFF7C5BF00002DE9F04F87B0FEF71B
:103990007FF918B1002007B0BDE8F08F454ED6E999
:1039A000014704EA070006EB8000A146641CC568D5
:1039B0000CE000BFC5F3891000EB9550044404EA05
:1039C000070006EB8000A146C568641CA807F1D07B
:1039D00005F003004FF0000B022805D0AA0A01A849
:1039E000C5F38313002153E004EA070006EB8000CF
:1039F00004F1010A0AEA0704C268381B80004FEA92
:103A00009558001DC5F38913804521D929490C31EA
:103A100038B106EB840400F0FF0CA8EB00000C3476
:103A200004E00C46002108F0FF0C0846C0B2CDE9C6
:103A30000210CDE9004CD6F81444C5F3C200594633
:103A4000A047404511D108F103080AEB98042AE089
:103A5000002106EB84000C300090CDE90181039138
:103A6000C5F3C200D6F81444EAE760F38F1509EAFB
:103A7000070006EB8000C56016E000BF04EA070CF3
:103A800006EB8C0C491CDCF80CC040F804CB641C21
:103A90009942F3D3C5F3C2000093D6F8105401AB9A
:103AA0005946A84700B17460FEF7F2F880F00100B3
:103AB00071E70000642900202DE9F8430F4F884684
:103AC0000446002569462846BE68FEF7ADF8002882
:103AD00012D00B480021406861F38200009964F322
:103AE000C50001EA060265F3891007EB820268F35C
:103AF0009F20491CD0600091BDE8F8836429002014
:103B0000485002002DE9F843124D8846044601272B
:103B1000914669463846AE68FEF786F8002817D009
:103B20000D480021806861F38200009964F3C500AC
:103B300001EA060267F3891005EB820268F39F2011
:103B4000491CD0600091314005EB8101C1F80C9017
:103B5000BDE8F8836429002048500200024A106042
:103B6000101D0160704700002C76004010B50A78E7
:103B70004B78302402F0030204EA03131A438B78D3
:103B80004FF4E06404EA03231A43CB784FF48054E3
:103B900004EA03331A430B794FF4E02404EA0343A5
:103BA0001A434B794FF4801404EA03531A438B7978
:103BB000240104EA03631A43030105481844C0F8CA
:103BC0001825CA79097AC0F81415C0F8102510BD57
:103BD00000700040030103481844C0F81425C0F8E1
:103BE000101570470070004002494058002800D06E
:103BF0000120704700700040034908B508440022C6
:103C000002600068009008BD007000404058002825
:103C100000D00120704708B5002242504058009063
:103C200008BD4058002800D00120704708B5002288
:103C300042504058009008BDD0F80403084000D01E
:103C4000012070474058002800D00120704708B577
:103C5000002242504058009008BD70B516460D46EF
:103C6000002405E0285DFDF739F90028FAD1641C2D
:103C7000B442F7D30D20FDF731F90028FAD10A201C
:103C8000FDF72CF90028FAD170BD10B500280AD034
:103C9000032808D10220FDF701FF002803D0BDE86A
:103CA0001040FCF7D5BF10BD70B5384D04460088F4
:103CB0002E8888B03B2839D00DDC02283AD0102855
:103CC00015D011281BD0132822D100231A46852194
:103CD00030467FDF23E0512830D052281AD05528B3
:103CE00050D0562814D1A088132176DF17E0072082
:103CF000FDF7D4FE08B1FCF7ABFFA08807E0002079
:103D0000FDF7CCFE08B1FCF7A3FF4FF6FF7028804B
:103D100008B070BD00231A4619463046A9DF0028B6
:103D2000F6D008B0BDE87040FCF792BFA088132120
:103D300076DFF4E7A088002167DFF0E71022A11DFD
:103D400004A8FBF779FA9DF810100029E0D09DF83F
:103D50001800042803D0062801D00528D8D102294C
:103D60000ED001208DF800004FF4C170ADF80400B2
:103D7000A0886946A8DF0028CAD0FCF769FFC7E71A
:103D80000220EFE7A0881721ADDFC8E72821002037
:103D90000078002807D104483B21008876DF0028FE
:103DA00001D0FCF755BF7047282100200449084482
:103DB00090F93000082801DB01207047002070478F
:103DC000B02700200449084490F93000082801D2A7
:103DD0000120704700207047B027002070B50346CF
:103DE00000791B4901EB40101968027F4FF0FF304A
:103DF000002AD1F80C25D1F81465D1F80855D1F86E
:103E0000104504D0C1F80C05C1F8140503E0C1F851
:103E10001405C1F80C051968C1F80805C1F81005AA
:103E2000501C02D01046FFF7FBFC701C02D030463D
:103E3000FFF7F6FC601C02D02046FFF7F1FC681C7F
:103E400004D02846BDE87040FFF7EABC70BD000012
:103E5000082800203EDF002801D0FCF7F9BE70479B
:103E60004FF08050D0F80C01800200F100507047F4
:103E700070B5012670044FF0E0210025C1F88001E3
:103E8000084C4010C4F84803C4F8080366602F20AB
:103E9000FEF782FEA660044C2F20A560FEF77CFE94
:103EA000A57070BD00100140D021002070B50546FE
:103EB000C87D0C4600284FF4847128460AD0FFF7CD
:103EC000B5FED5F81805627EE1688854607E401C16
:103ED000607670BDFFF7AAFED5F8180570BD30B545
:103EE0008FB00024054607949DF81C001C2120F08B
:103EF0000F00401C20F0F00010308DF81C009DF8E1
:103F00001D0020F00F00401C20F0F00010308DF854
:103F10001D009DF81E0020F00600801C8DF81E007C
:103F20006846FBF7A2F99DF80000019440F01000EC
:103F30008DF8000007A8CDE9044003940694287882
:103F40008DF83A000320ADF838000D949DF8340048
:103F5000142120F00F00401C20F0F00010308DF8EC
:103F600034009DF8350020F00F00401C20F0F000D8
:103F700010308DF835009DF8360020F00600801CCA
:103F800020F0180040F001008DF8360008A8FBF77B
:103F90006CF90EA808900DA809900120ADF8280032
:103FA0001420ADF82A40ADF82C00688805F10C0308
:103FB00008AA6946A2DF0FB030BD1FB501238DF8F6
:103FC00000308DF808100192D0E900126846904741
:103FD0001FBD10B5044600684FF49271FFF726FE2E
:103FE0004FF484712068FFF721FE206801210160F1
:103FF00010BD000070B506460078002827D10221C8
:104000007068FEF7FBFF08B1FCF722FE104D05F1CA
:104010001404A869401CA861B4F90200FEF7F8F87E
:10402000A869FEF701F8A88018B1014609A0FBF7BE
:10403000D5FF00200246716831F9101024F81010E5
:10404000002901DA24F81020401C0228F3DB70BD9F
:10405000482100202564200A0000000000B5164811
:1040600087B00DF10C0C0EC88CE80E0007C88DE867
:10407000070001208DF8020010490020FFF732F8F8
:1040800008B1FCF7E5FD03A90020FFF709F808B126
:10409000FCF7DEFD69460120FFF702F808B1FCF7E6
:1040A000D7FD02210648FEF7A9FF002801D0FCF742
:1040B000CFFD07B000BD0000A84F0200F53F020091
:1040C00058210020054810B58078FEF771FF0028C0
:1040D00003D0BDE81040FCF7BBBD10BD4821002057
:1040E0003EB5FEF77FFF08B1FCF7B2FD1C491D4A43
:1040F000D1E90201CDE9010103208DF8060001A9F3
:104100001748FFF777F808B1FCF7A2FD144C2068B8
:10411000D0F810054FF47A52C240002001460090BA
:1041200001232046FFF750F82046FFF73FF82468A8
:1041300004F5A074FFF71AF805460B48FEF7E0FEF9
:1041400008B1FCF785FD08482A46801E2146807884
:10415000FEF70CFF002801D0FCF77AFD3EBD000001
:10416000984F0200614402004A21002010B5044625
:10417000FBF754FF40B1002C09DA04F00F0000F106
:10418000E02090F8140D06E042F2010010BD04F1A9
:10419000E02090F800044109082914D299B10129BE
:1041A00011D004290FD005290DD00B4801228168B8
:1041B00061B1610950F8213004F01F04A24013439B
:1041C00040F8213005E042F2020010BD2046FBF726
:1041D0002CFC002010BD0000F02800202DE9F0414B
:1041E0000746806A14468846C8B3002531E000BF00
:1041F000B96A05EB450001EB8006B088801CFE28FB
:1042000002D90C20BDE8F0812288401C08F8020089
:1042100020881622401C80B2208008F800202088C8
:10422000401C80B2208000EB0801308800F0D7FDF0
:104230002188084480B22080B28842B1B16871B14F
:104240004044FAF7F9FF2088B188084420806D1CAB
:10425000EDB297F82C00A842CAD80020D2E7FFE7B9
:104260000720CFE708B50548009069460448FDF7E8
:104270001FF9002801D0FCF7EBFC08BD5B3C0200F5
:10428000F422002010B50F490F4C0A8A42818A8A15
:104290008281097891B1617981B9E17971B10221A5
:1042A0000172084904202031C870064800212030DE
:1042B000FCF7D6FE002804D1052000E00320A07002
:1042C000002010BDAC2600208021002010B50E4932
:1042D0000E4C0A8B42818A8B82810A78042182B13A
:1042E000627972B9E27962B1022202720648203024
:1042F000C1700021FCF7B4FE002804D10620A07094
:1043000000E0A170002010BDAC260020802100201C
:1043100018B10349C860002070470E2070470000A4
:10432000142200201CB50E4901910091694660DFFE
:104330000446DDE9002082420AD00A490220FFF744
:10434000E1FBFFF78DFD0099421A07A1022003E06F
:1043500024B1224611A10120FFF7D4FB20461CBD49
:1043600028210020785002005344483A5741524EC9
:10437000494E473A52414D2073697A652073686F00
:10438000756C642062652061646A7573746564206D
:10439000746F2030782578200D0A00005344483A85
:1043A0004552524F523A73645F626C655F656E614D
:1043B000626C653A206572726F7220307825780DD4
:1043C0000A00000070B50E46054614461C21104632
:1043D000FAF74BFF012020800021A1612175267290
:1043E000657205B1A072002070BDFCF709BC000029
:1043F0002DE9F041074619B188074FF0000402D0BB
:104400000720BDE8F081114D4FF0E0200126A960A2
:104410006A806B60D0F8000110F0010F03D03446C1
:104420000020FBF7ECFA0A49384610DF070005D0F8
:1044300014B10020FBF7F9FA3846E2E72E70FEF7D8
:1044400017FCBDE8F0411620FFF790BE14220020B3
:10445000EB4302000148007870470000142200205E
:10446000704700000EB50F490F4AD1E90201CDE9AE
:10447000010101A90B48FEF7BDFE08B1FCF7E8FBFE
:1044800008480068D0F810054FF47A52C240012065
:104490000346009000210348FEF796FE0148FEF710
:1044A00085FE0EBD484F0200AD440200704700007B
:1044B0002DE9F84F204C00256846D4E901B6FDF7F8
:1044C00037FE8046FEF768F80746A946B8F1000FA8
:1044D00025D00023009ACC46606819E007680146A1
:1044E000974202D9BA1A026014E0C1F800C0D1F8AC
:1044F0000C80D21BC8693B448A46B8F1000F07D034
:10450000F71827F07F47C1E90178CAF81C500D461B
:104510000028E3D160602846FEF792F804E02846C0
:10452000FEF78EF800B917B15846FDF75DFC84F828
:104530000390BDE8F88F0000D02100200D4B10B58E
:10454000596831B102680C68A24204D8A21A0A6004
:10455000C161586010BD0B4603E00B46C969121BD0
:1045600021B10C689442F8D3A41A0C600260C161B6
:10457000D86110BDD02100200E4810B541684A1CFA
:10458000426013290FDD447800224FF0A04101233F
:1045900054B1012C07D10378002B04D02023C1F89B
:1045A0000C354270426010BD2024C1F808454370AC
:1045B0004260F0E7302100207CB5064600240D461D
:1045C0008DF800406846FCF7A7FC01A800F03CFC11
:1045D00070B10570094946609DF8040048709DF867
:1045E0000000FCF7BDFC1420FBF72AFA20467CBD36
:1045F00004249DF80000FCF7B3FCF7E7E02100205D
:104600002DE9F0411D4D6C68002C35D01C48002769
:104610000068A968B846401A20F07F462068B0427A
:1046200015D82246361A0744E469107C68B182F82E
:104630001080EB6833B1D2E90501984728B1FCF747
:1046400007FB02E0D2E905108847002CE6D1297863
:104650006878814206D1401CC0B26870022801D13E
:1046600085F8018005486978183040F82170BDE868
:10467000F0411420FBF7E4B9BDE8F081D02100201F
:10468000041501402DE9F041044640F20C60216818
:10469000890001F1A041C1F800076168890001F1BA
:1046A000A041C1F800072068FFF7FAF86068FFF73B
:1046B000F7F8216840F20D60890001F1A041C1F8CE
:1046C00000076168890001F1A041C1F800070420DA
:1046D000FEF71CFA00274FF0A04601252179D6F8F5
:1046E0001005C84010F0010F02D0002F1DD010E0BF
:1046F000217805FA01F0C6F80C050420FEF706FA49
:104700002068FFF7CDF80420FEF700FA7F1C092F80
:10471000E4DB20798540C6F80C550420FEF7F6F955
:104720006068BDE8F041FFF7BBB8BDE8F08100006C
:104730001FB5094B0FCB8DE80F00074800231A4621
:1047400069460838FEF7AEFD08B1FCF781FA024869
:104750000838FEF797FD1FBD804F02002DE9F05F7E
:1047600006461F4615460C464FF0000A4FF0080B50
:104770004FF482795068FEF7BBFB00287ED04FF0E3
:10478000FF30C4F8080396F8240028B1B068C4F8D4
:1047900004031120BDE8F09F780703D4F80601D484
:1047A000012000E0002086F8240095E8070006F1CB
:1047B0000C0383E80700C7F3001086F8250068782B
:1047C000C4F888054FF482712046FFF724FA4FF4AD
:1047D00092712046FFF71FFAF8074FF0010800D04A
:1047E0004046C4F85005B80701D5404600E0002017
:1047F000C4F84005287800286CD001287DD0022814
:104800004ED0032814D04FF0070A380704D4287874
:10481000032801D044F80B80306800286ED0780758
:1048200002D54FF40070B060B068C4F80403B0E083
:10483000A868FEF75DFB08B34FF48070C4F800026F
:10484000A9786868C4F84405C4F848154FF4A871FD
:104850002046FFF7E0F94FF4B0712046FFF7DBF98F
:104860004FF4A4712046FFF7D6F9C4F82080C4F8AD
:10487000088000BF4FF4A871204600E028E0FFF751
:10488000C5F90028F6D04FF4A8712046FFF7C3F908
:10489000E878A968C4F84415C4F848053E4815E00E
:1048A000A8786968C4F84415C4F84805A868FEF7F4
:1048B0001FFB68B1E878A968C4F83415C4F8380556
:1048C0004FF48450C4F8000240F20220B0609CE72C
:1048D00010205FE7A8786968C4F84415C4F8480553
:1048E000B8060FD54FF48070C4F800022A48B060B3
:1048F0004FF4A4794946204601E00CE01BE0FFF7A5
:104900008AF905E04FF40070C4F80002801CB06022
:10491000C4F8208079E7A8786968C4F83415C4F829
:1049200038054FF48050C4F8000240F20220B06015
:104930004FF0000BECE745464FF482774FF4927846
:104940000BE041462046FFF761F930B14146204671
:10495000FFF761F925626561B94649462046FFF7D0
:1049600055F90028EDD0D4F8C404C4F8C4040021DB
:1049700086F8241068B10321C20701D04FF4024128
:10498000820701D548F20121400701D548F20221F2
:104990008A465046FEE600000002040070B50C4650
:1049A00005464FF48E71FFF741F9A18AA068415C7A
:1049B000A08A401CA082C5F81C1570BD30B58FB010
:1049C00005461C216846FAF750FC00249DF80000BB
:1049D000019440F00C008DF80000039404940594B9
:1049E000069428788DF836000220ADF834000C9437
:1049F0009DF83000142120F00F00401C20F0F00042
:104A000010308DF830009DF8310020F00F00401C70
:104A100020F0F00010308DF831009DF8320020F0C9
:104A20000600801C20F0180040F001008DF83200D4
:104A300007A8FAF71AFC0DA807900CA80890012007
:104A4000ADF824001420ADF82640ADF828006888A1
:104A50002B1D07AA6946A2DF0FB030BD1FB500228B
:104A60008DF800208DF80810816801918275D0E9D9
:104A70000012684690471FBD70B5017841B1012909
:104A800001D0022920D14068BDE87040FCF7E0B8B1
:104A90000F4C0E4D20782844FCF7ACF92078401CD0
:104AA000C2B2A818227010F8010C0A2801D0142AEA
:104AB0000AD306490748FCF75BFD082802D008B175
:104AC000FCF7C6F80020207070BD00001023002005
